:020000040000FA
:100000000C9462000C947F000C947F000C947F0091
:100010000C947F000C947F000C947F000C94D70408
:100020000C947F000C947F000C947F000C947F0054
:100030000C947F000C947F000C947F000C947F0044
:100040000C9433050C947F000C947F000C947F007B
:100050000C947F000C947F000C947F000C947F0024
:100060000C947F000C947F00000000002400270007
:100070002A000000000023002600290000000008DC
:10008000000201000003040700000000000000005F
:10009000010204081020408001020408102001021F
:1000A0000408102000000000250028002B00040494
:1000B0000404040404040202020202020303030310
:1000C0000303020011241FBECFEFD8E0DEBFCDBF77
:1000D00011E0A0E0B1E0ECE6F4E102C005900D9281
:1000E000AA32B107D9F722E0AAE2B1E001C01D921D
:1000F000A43DB207E1F70E947D050C94340A0C94EC
:100100000000833081F028F4813099F08230A9F02A
:1001100008958730A9F08830C9F08430B1F4809117
:1001200080008F7D03C0809180008F778093800056
:10013000089584B58F7784BD089584B58F7DFBCFF6
:100140008091B0008F778093B00008958091B000C7
:100150008F7DF9CFCF93DF93282F30E0F901E4585A
:10016000FF4F8491F901E057FF4FD491F901E25517
:10017000FF4FC491CC23A1F081110E948100EC2F8C
:10018000F0E0EE0FFF1FEE58FF4FA591B491EC91F8
:10019000ED2381E090E009F480E0DF91CF910895B4
:1001A00080E090E0FACF1F93CF93DF93282F30E0C9
:1001B000F901E458FF4F8491F901E057FF4FD491C2
:1001C000F901E255FF4FC491CC23A9F0162F8111FC
:1001D0000E948100EC2FF0E0EE0FFF1FEC55FF4F67
:1001E000A591B4918FB7F894EC91111108C0D095F6
:1001F000DE23DC938FBFDF91CF911F910895DE2B1B
:10020000F8CF9091140189130BC0E2ECF0E0E49177
:100210009FEF90931401E13049F028F0E23061F053
:1002200060E00C94D30010926E00FACF90916F00B2
:100230009D7F90936F00F4CF909170009D7F90937D
:10024000700091E09093B0009091B100987F94601D
:100250009093B1001092B300E3CFCF93DF9390E07F
:10026000FC01E057FF4F249182559F4FFC01849180
:100270008823D1F090E0880F991FFC01E859FF4FC7
:10028000A591B491FC01EC55FF4FC591D49161113A
:100290000EC09FB7F8948C91E22FE0958E238C933B
:1002A0002881E223E8839FBFDF91CF9108958FB724
:1002B000F894EC91E22BEC938FBFF6CF4F925F92C4
:1002C0006F927F928F929F92AF92BF92CF92DF9266
:1002D000EF92FF920F931F93CF93DF9300D000D044
:1002E0001F92CDB7DEB78C012A013B01809114012A
:1002F0008730C9F08F3F09F47FC00F900F900F90A7
:100300000F900F90DF91CF911F910F91FF90EF9081
:10031000DF90CF90BF90AF909F908F907F906F9025
:100320005F904F900895E2ECF0E084918D8387FD1B
:10033000E4CF61E087E00E942D018D81882321F0C8
:100340009D81923009F05CC14801B12CA12C60E084
:1003500072E18AE790E0A50198010E94780829835C
:100360003A834B835C8369017A0181E0C81AD10822
:10037000E108F1089FEFC916D104E104F10409F086
:100380000CF413C160E472E48FE090E0A5019801E1
:100390000E94780869017A0181E0C81AD108E10851
:1003A000F1089D81923009F098C08FEFC816D104F2
:1003B000E104F10409F00CF4DDC160E970ED83E0C3
:1003C00090E0A50198010E94780869017A0191E006
:1003D000C91AD108E108F1088FEFC816D104E10469
:1003E000F10411F00CF0A3C183E09091B100987F6B
:1003F000892B8093B100E1C087E080931401E2EC87
:10040000F0E094919D839F3F09F477CF913029F1DB
:1004100058F0923009F43FC08D8187FD6ECF61E0C6
:1004200087E00E942D018CCF14BC15BC84B582607E
:1004300084BD85B5816085BDE5EBF0E0E491F0E039
:10044000EE0FFF1FEC55FF4F85919491E7E9F0E027
:10045000E491E093C7021D826CCF1092800010924D
:10046000810080918100886080938100809181006B
:10047000816080938100E5EBF0E0E491F0E0EE0F25
:10048000FF1FEC55FF4F85919491E7E9F0E0E4916F
:10049000E093C6024ECF1092B0001092B10080914E
:1004A000B00082608093B0008091B1008160809341
:1004B000B100E5EBF0E0E491F0E0EE0FFF1FEC554A
:1004C000FF4F859194919093C5028093C402E7E910
:1004D000F0E0E491E093C3022CCF9FEFC916D10462
:1004E000E104F10409F00CF489C068E478EE81E0DD
:1004F00090E0A50198010E94780869017A0181E0E5
:10050000C81AD108E108F1089D81992309F428C18E
:100510009FEFC916D104E104F10409F00CF41EC1E7
:1005200062E17AE780E090E0A50194010E947808FA
:1005300069017A0181E0C81AD108E108F1089D81BA
:10054000992309F4EBC08FEFC816D104E104F1043C
:1005500011F008F0BFC086E048CF64E274EF80E09D
:1005600090E0A50194010E94780869017A0181E078
:10057000C81AD108E108F10885E09FEFC916D10437
:10058000E104F10409F008F430CF62E17AE780E099
:1005900090E0A50194010E94780869017A0191E038
:1005A000C91AD108E108F108CECF81E09D819111EF
:1005B0001CCF95B5987F892B85BD2FEF3FEFA90103
:1005C000411451046104710409F043C09D819130CC
:1005D00009F45EC0923009F46DC091118ECEC7BC93
:1005E0002093D0023093D1024093D2025093D30291
:1005F00080916E00826080936E007FCE82E0D6CFC5
:10060000B12CA12C60E072E18AE790E0A50198018D
:100610000E94780869017A0181E0C81AD108E108CE
:10062000F108C114D10491E0E906F10404F591E068
:100630008D81813011F680918100887F892B809394
:1006400081002FEF3FEFA9014114510461047104AF
:10065000F9F0D801AA0FBB1FA30192010E949708CD
:1006600028EE33E040E050E00E94AA08AFCF68E4F3
:1006700078EE81E090E0A50198010E947808690178
:100680007A0181E0C81AD108E108F10893E0D0CFDF
:10069000D0928900C09288002093CC023093CD0282
:1006A0004093CE025093CF0280916F00826080937E
:1006B0006F0023CEC092B3002093C8023093C902CA
:1006C0004093CA025093CB02809170008260809365
:1006D000700013CEC980DA80EB80FC809AE0F5943C
:1006E000E794D794C7949A95D1F791E0C91AD108A5
:1006F000E108F10887E079CEC980DA80EB80FC80E0
:100700008AE0F594E794D794C7948A95D1F791E05D
:10071000C91AD108E108F10885E04BCF8FEFC81660
:10072000D104E104F10409F038F784E042CF68E431
:1007300078EE81E090E0A50198010E9478086901B7
:100740007A0191E0C91AD108E108F1088FEFC816C3
:10075000D104E104F10411F00CF0FFCE84E045CEA9
:100760008FEFC816D104E104F10411F00CF0D8CEDB
:1007700083E01FCF82E039CE3FB7F89480912B0100
:1007800090912C01A0912D01B0912E0126B5A89B2E
:1007900005C02F3F19F00196A11DB11D3FBFBA2F13
:1007A000A92F982F8827BC01CD01620F711D811DD3
:1007B000911D42E0660F771F881F991F4A95D1F758
:1007C00008958F929F92AF92BF92CF92DF92EF9255
:1007D000FF926B017C010E94BC034B015C01C114C0
:1007E000D104E104F104B9F00E94BC03681979094D
:1007F0008A099B09683E73408105910580F321E0D9
:10080000C21AD108E108F10888EE880E83E0981E2C
:10081000A11CB11CE4CFFF90EF90DF90CF90BF9070
:10082000AF909F908F9008958F929F92AF92BF92BA
:10083000CF92DF92EF92FF920F931F93CF93DF93AC
:1008400061E082E00E94D30061E083E00E94D30077
:1008500061E084E00E94D30061E085E00E94D30063
:1008600061E086E00E94D3006AEF70E080E090E0F3
:100870000E94E10360E082E00E94D30060E083E038
:100880000E94D30060E084E00E94D30060E085E035
:100890000E94D30060E086E00E94D3006AEF70E01F
:1008A00080E090E00E94E10361E082E00E94D300DA
:1008B00061E083E00E94D30061E084E00E94D30005
:1008C00061E085E00E94D30061E086E00E94D300F1
:1008D0006AEF70E080E090E00E94E10360E082E077
:1008E0000E94D30060E083E00E94D30060E084E0D7
:1008F0000E94D30060E085E00E94D30060E086E0C3
:100900000E94D3006AEF70E080E090E00E94E10373
:10091000C0E0D1E009E111E04E010D2E000CAA0863
:10092000BB0888EEC82E83E0D82EE990F990B50177
:10093000A401F801819191918F010E945E01C6018D
:10094000B7010E940C0A072E000C880B990B0E941D
:10095000130926E636E646EA5FE30E9477090E941D
:10096000DB08072E000C880B990B0E94E10387E03F
:100970000E940101F1E0C031DF07B9F681E090E0AB
:10098000909313018093120184EF91E090931101F1
:1009900080931001DF91CF911F910F91FF90EF9005
:1009A000DF90CF90BF90AF909F908F9008951F924F
:1009B0000F920FB60F9211242F933F934F935F9393
:1009C0006F937F938F939F93AF93BF93EF93FF9317
:1009D0008091C8029091C902A091CA02B091CB0245
:1009E000892B8A2B8B2BD1F19091C302E091C40209
:1009F000F091C5028081892780838091C8029091FF
:100A0000C902A091CA02B091CB02181619061A06A3
:100A10001B069CF48091C8029091C902A091CA0261
:100A2000B091CB020197A109B1098093C8029093BC
:100A3000C902A093CA02B093CB02FF91EF91BF917C
:100A4000AF919F918F917F916F915F914F913F9166
:100A50002F910F900FBE0F901F9018958091140149
:100A60000E940101EACF1F920F920FB60F9211243C
:100A70002F933F938F939F93AF93BF9380912F01B9
:100A800090913001A0913101B091320130912A0151
:100A900023E0230F2D3758F50196A11DB11D20939A
:100AA0002A0180932F0190933001A0933101B093DC
:100AB000320180912B0190912C01A0912D01B091D8
:100AC0002E010196A11DB11D80932B0190932C0145
:100AD000A0932D01B0932E01BF91AF919F918F9163
:100AE0003F912F910F900FBE0F901F90189526E801
:100AF000230F0296A11DB11DD2CF789484B58260D8
:100B000084BD84B5816084BD85B5826085BD85B5B1
:100B1000816085BD80916E00816080936E0010922F
:100B200081008091810082608093810080918100AA
:100B3000816080938100809180008160809380003B
:100B40008091B10084608093B1008091B000816099
:100B50008093B00080917A00846080937A008091C5
:100B60007A00826080937A0080917A00816080931D
:100B70007A0080917A00806880937A001092C10098
:100B800060E081E10E942D0160E080E10E942D0182
:100B900060E08FE00E942D0160E08EE00E942D0158
:100BA00060E082E10E942D0160E083E10E942D015E
:100BB00061E082E00E942D0161E083E00E942D014E
:100BC00061E084E00E942D0161E085E00E942D013A
:100BD00061E086E00E942D0160E082E00E94D30087
:100BE00060E083E00E94D30060E084E00E94D300D4
:100BF00060E085E00E94D30060E086E00E94D300C0
:100C000065E0462E512C612C712C8091120190913F
:100C10001301019729F52FB7F89460912F01709176
:100C2000300180913101909132012FBF6115710522
:100C30008105910511F00E946F08C3E3D1E00BEF2D
:100C400011E00E942008A30192010E9478086E5FC3
:100C50007F4F8F4F9F4F699379930C171D0789F72B
:100C6000E0901201F090130181E0E816F10409F41C
:100C700041C060E082E00E94D30060E083E00E9417
:100C8000D30060E084E00E94D30060E085E00E9431
:100C9000D30060E086E00E94D300C3E3D1E05E01B0
:100CA000D12CC12CCE14DF049CF10BEF11E0B12C40
:100CB000A12C46E0242E312C52E0852E912CAE142E
:100CC000BF040CF47BC08FEFE81AF80AF09213010E
:100CD000E09212018091100190911101C2979093BE
:100CE00011018093100168EC70E080E090E00E94B8
:100CF000E10306C083E10E94AA00892B09F4B9CF61
:100D000080E090E0892B09F480CF0E9400007DCF25
:100D1000F501019111915F0140E050E0BA0188ECCA
:100D200090E00230110501F140E050E0BA018CE2A0
:100D300091E003301105C1F040E050E0BA0180E9D4
:100D400091E00430110581F040E050E0BA0184EFF9
:100D500091E00530110541F00630110581F440E0C5
:100D600050E0BA0188E592E00E945E0168EC70E014
:100D700080E090E00E94E10387E00E94010161E0D1
:100D8000802F0E94D3006091100170911101072EF5
:100D9000000C880B990B0E94E10360E0802F0E94F9
:100DA000D30068EC70E080E090E00E94E103FFEF88
:100DB000CF1ADF0A77CFCD2809F0ECC082E10E947C
:100DC000AA00892B09F0EDC061E086E00E94D30003
:100DD00040E050E0BA0188E592E00E945E016CE2DA
:100DE00071E080E090E00E94E10387E00E94010151
:100DF000F8013182208268EC70E080E090E00E948F
:100E0000E10388819981069719F00E94140478CF34
:100E100060E086E00E94D300CC24C394D12C81E111
:100E20000E94AA00892B51F561E085E00E94D30061
:100E300040E050E0BA0184EF91E00E945E016CE274
:100E400071E080E090E00E94E10387E00E940101F0
:100E500085E090E0F8019183808368EC70E080E0A9
:100E600090E00E94E10388819981059771F660E026
:100E700085E00E94D300CC24C394D12C80E10E9451
:100E8000AA00892B59F561E084E00E94D30040E07C
:100E900050E0BA0180E991E00E945E016CE271E0ED
:100EA00080E090E00E94E10387E00E94010184E07D
:100EB00090E0F8019183808368EC70E080E090E03E
:100EC0000E94E10388819981049709F09ECF60E038
:100ED00084E00E94D300CC24C394D12C8FE00E94E4
:100EE000AA00892B59F561E083E00E94D30040E01D
:100EF00050E0BA018CE291E00E945E016CE271E088
:100F000080E090E00E94E10387E00E94010183E01D
:100F100090E0F8019183808368EC70E080E090E0DD
:100F20000E94E10388819981039709F06ECF60E008
:100F300083E00E94D300CC24C394D12C8EE00E9485
:100F4000AA00892B09F037CF61E082E00E94D3002C
:100F500040E050E0BA0188EC90E00E945E016CE253
:100F600071E080E090E00E94E10387E00E940101CF
:100F7000F8019182808268EC70E080E090E00E944D
:100F8000E10388819981029709F03FCF60E082E018
:100F90000E94D300FFEFAF1ABF0A0E5F1F4F2296C9
:100FA0008ECED12CC12C3BCF8F929F92AF92BF920D
:100FB000CF92DF92EF92FF92CF93DF93EC016881A3
:100FC00079818A819B81611571058105910521F4E3
:100FD00064E279ED8BE597E02DE133EF41E050E0FD
:100FE0000E94780849015A019B01AC01A7EAB1E4CB
:100FF0000E9497086B017C01ACEEB4EFA50194014F
:101000000E94A508C60ED71EE81EF91EF7FE06C0F0
:1010100081E0C81AD108E10880E8F80AC882D982BC
:10102000EA82FB82C701B6019F77DF91CF91FF90E3
:10103000EF90DF90CF90BF90AF909F908F900895EA
:101040008F929F92AF92BF92CF92DF92EF92FF92D8
:10105000609115017091160180911701909118010E
:10106000611571058105910521F464E279ED8BE547
:1010700097E02DE133EF41E050E00E94780849010C
:101080005A019B01AC01A7EAB1E40E9497086B01E9
:101090007C01ACEEB4EFA50194010E94A508C60E38
:1010A000D71EE81EF91EF7FE06C081E0C81AD10857
:1010B000E10880E8F80AC0921501D0921601E0928A
:1010C0001701F0921801C701B6019F77FF90EF90CA
:1010D000DF90CF90BF90AF909F908F9008956093D6
:1010E00015017093160180931701909318010895CC
:1010F000052E97FB1EF400940E948F0857FD07D021
:101100000E94AA0807FC03D04EF40C948F08509557
:101110004095309521953F4F4F4F5F4F08959095E3
:101120008095709561957F4F8F4F9F4F08950E94D6
:10113000CC08A59F900DB49F900DA49F800D911D8C
:1011400011240895B7FF0C9497080E949708821BFA
:10115000930B0895A1E21A2EAA1BBB1BFD010DC023
:10116000AA1FBB1FEE1FFF1FA217B307E407F50757
:1011700020F0A21BB30BE40BF50B661F771F881F33
:10118000991F1A9469F760957095809590959B01C9
:10119000AC01BD01CF010895A29FB001B39FC00172
:1011A000A39F700D811D1124911DB29F700D811D93
:1011B0001124911D08950E94E2086894B1110C94C5
:1011C000710908950E94560988F09F5798F0B92F29
:1011D0009927B751B0F0E1F0660F771F881F991F6C
:1011E0001AF0BA95C9F714C0B13091F00E94700995
:1011F000B1E008950C947009672F782F8827B85FA5
:1012000039F0B93FCCF3869577956795B395D9F7C3
:101210003EF490958095709561957F4F8F4F9F4FCD
:101220000895E89409C097FB3EF4909580957095D9
:1012300061957F4F8F4F9F4F9923A9F0F92F96E922
:10124000BB279395F695879577956795B795F11197
:10125000F8CFFAF4BB0F11F460FF1BC06F5F7F4F34
:101260008F4F9F4F16C0882311F096E911C0772346
:1012700021F09EE8872F762F05C0662371F096E84F
:10128000862F70E060E02AF09A95660F771F881F1E
:10129000DAF7880F9695879597F9089557FD905836
:1012A000440F551F59F05F3F71F04795880F97FB2A
:1012B000991F61F09F3F79F08795089512161306E4
:1012C0001406551FF2CF4695F1DF08C01616170613
:1012D0001806991FF1CF8695710561050894089548
:1012E000E894BB2766277727CB0197F908950E94DA
:1012F0008A090C94FB090E94ED0938F00E94F40958
:1013000020F0952311F00C94E4090C94EA091124BF
:101310000C9471090E944E0970F3959FC1F3950FCB
:1013200050E0551F629FF001729FBB27F00DB11D69
:10133000639FAA27F00DB11DAA1F649F6627B00DF9
:10134000A11D661F829F2227B00DA11D621F739FE2
:10135000B00DA11D621F839FA00D611D221F749FF0
:101360003327A00D611D231F849F600D211D822F37
:10137000762F6A2F11249F5750409AF0F1F088235E
:101380004AF0EE0FFF1FBB1F661F771F881F91508B
:101390005040A9F79E3F510580F00C94E4090C944D
:1013A00071095F3FE4F3983ED4F38695779567958E
:1013B000B795F795E7959F5FC1F7FE2B880F911DB5
:1013C0009695879597F9089597F99F6780E870E05B
:1013D00060E008959FEF80EC089500240A941616AB
:1013E000170618060906089500240A941216130613
:1013F000140605060895092E0394000C11F48823A1
:1014000052F0BB0F40F4BF2B11F460FF04C06F5FBC
:101410007F4F8F4F9F4F089597FB072E16F4009430
:1014200007D077FD09D00E94200A07FC05D03EF4C2
:10143000909581959F4F0895709561957F4F089580
:10144000AA1BBB1B51E107C0AA1FBB1FA617B707EA
:1014500010F0A61BB70B881F991F5A95A9F7809506
:101460009095BC01CD010895F894FFCF04000800C9
:10147000080004000400040004000400F40101005A
:10148000FF010000000601C400C400DC00C400002D
:0614900000F70006010058
:107E0000112484B714BE81FFF0D085E080938100F7
:107E100082E08093C00088E18093C10086E0809377
:107E2000C20080E18093C4008EE0C9D0259A86E02C
:107E300020E33CEF91E0309385002093840096BBD3
:107E4000B09BFECF1D9AA8958150A9F7CC24DD24C4
:107E500088248394B5E0AB2EA1E19A2EF3E0BF2EE7
:107E6000A2D0813461F49FD0082FAFD0023811F036
:107E7000013811F484E001C083E08DD089C08234E0
:107E800011F484E103C0853419F485E0A6D080C0E4
:107E9000853579F488D0E82EFF2485D0082F10E0AE
:107EA000102F00270E291F29000F111F8ED06801E7
:107EB0006FC0863521F484E090D080E0DECF843638
:107EC00009F040C070D06FD0082F6DD080E0C81688
:107ED00080E7D80618F4F601B7BEE895C0E0D1E017
:107EE00062D089930C17E1F7F0E0CF16F0E7DF06D8
:107EF00018F0F601B7BEE89568D007B600FCFDCFD4
:107F0000A601A0E0B1E02C9130E011968C91119780
:107F100090E0982F8827822B932B1296FA010C0160
:107F200087BEE89511244E5F5F4FF1E0A038BF0790
:107F300051F7F601A7BEE89507B600FCFDCF97BE46
:107F4000E89526C08437B1F42ED02DD0F82E2BD052
:107F50003CD0F601EF2C8F010F5F1F4F84911BD097
:107F6000EA94F801C1F70894C11CD11CFA94CF0C13
:107F7000D11C0EC0853739F428D08EE10CD085E9AC
:107F80000AD08FE07ACF813511F488E018D01DD067
:107F900080E101D065CF982F8091C00085FFFCCF94
:107FA0009093C60008958091C00087FFFCCF809118
:107FB000C00084FD01C0A8958091C6000895E0E648
:107FC000F0E098E1908380830895EDDF803219F02E
:107FD00088E0F5DFFFCF84E1DECF1F93182FE3DFCA
:107FE0001150E9F7F2DF1F91089580E0E8DFEE27F6
:047FF000FF270994CA
:027FFE00040479
:00000001FF
